:020000040800F2
:10000000E83C00202D0300085F690008E95900085A
:100010005D690008D92A0008018E00080000000070
:10002000000000000000000000000000477700080A
:10003000E12C000800000000B9740008C97B00082A
:100040004703000847030008470300084703000868
:100050004703000847030008470300084703000858
:100060004703000847030008470300084703000848
:100070004703000847030008470300084703000838
:100080004703000847030008470300084703000828
:100090004703000847030008470300084703000818
:1000A0004703000847030008470300085D7C000879
:1000B000997C0008A57C0008B17C00084703000873
:1000C00047030008470300084703000847030008E8
:1000D00047030008AD8D000847030008F58D0008B0
:1000E000A92F00084703000847030008C97C00083F
:1000F000ED7C0008E17C0008D57C0008470300087F
:100100004703000847030008BD7C000847030008B8
:1001100075820008470300084703000847030008EA
:100120004703000847030008470300084703000887
:100130004703000847030008470300084703000877
:100140004703000847030008470300084703000867
:100150004703000847030008470300084703000857
:100160004703000847030008470300084703000847
:1001700047030008697C00088D7C0008817C00082A
:10018000757C000847030008470300084703000880
:100190004703000800000000470300084703000869
:1001A000470300084703000847030008ED5900080B
:1001B00047030008470300084703000847030008F7
:1001C00047030008470300084703000847030008E7
:1001D000470300084703000800F002F800F096F813
:1001E0000AA090E8000C82448344AAF10107DA4592
:1001F00001D100F08BF8AFF2090EBAE80F0013F04E
:10020000010F18BFFB1A43F00103184720B9000083
:1002100040B90000103A24BF78C878C1FAD8520714
:1002200024BF30C830C144BF04680C607047000070
:100230000023002400250026103A28BF78C1FBD8EF
:10024000520728BF30C148BF0B6070476E2900F0CD
:100250007F86702900F08D8266290BF07C826529EB
:100260000BF0798267290BF0768261290BF0758299
:1002700003681B0A28BF41F08001692900F0FE8154
:10028000642900F0FB81752900F0F8816F2901F0E5
:100290007C81782900F05982E92901F01781E4294D
:1002A00001F01481F52901F01181EF2901F0798124
:1002B000F82900F058820368DB0928BF41F080016B
:1002C000632901F09880732901F09D80E32901F0F2
:1002D000F383F32901F0F883002070471FB50BF07A
:1002E00035FA9DE8030000F087FD01F0ADF9040048
:1002F000002000210AF066FC401C60600020002104
:100300000AF076FCE0601FBD10B510BD01F034FEB0
:100310001146FFF7E3FF09F08FFE01F052FE03B430
:10032000FFF7F2FF03BC01F0C3FE0000094880475D
:1003300009480047FEE7FEE7FEE7FEE7FEE7FEE7C7
:10034000FEE7FEE7FEE7FEE704480549054A064BDF
:10035000704700004D7C0008D9010008E80A002021
:10036000E83C0020E80C0020E80C002070B50646B0
:1003700000F026FD056806F10B0020F00704B442EA
:100380009CBF002070BD2B466A68BAB11068A042BD
:1003900010D304F1080188423CBF5068586007D36D
:1003A0005168101941601168091B016058601460A0
:1003B000101D70BD13465268002AE7D12146284619
:1003C00000F006FD0028DED170BD70B50446051FA3
:1003D00000F0F6FC0068002C14BF446870BD002CCF
:1003E00018BFAC423CBF20466468F8D301680A18C5
:1003F000AA4218BF456003D12A680546114401602E
:1004000028684119A1421CBF6C6070BD61686960B9
:1004100021680844286070BD53EA020C00F069802E
:100420002DE9F04B4FF00006002B1FBFB3FA83F508
:1004300003FA05F424FA05F65E4012BF1643B2FA39
:1004400082F502FA05F4C5F120051EBF22FA05FC6B
:1004500044EA0C04203556EA044C4FEA144418BF11
:10046000641C4FF000084FF00009904271EB030C40
:1004700039D3002919BFB1FA81F701FA07F6B0FAAA
:1004800080F700FA07F6C7F120071EBF20FA07FC25
:1004900046EA0C062037B6FBF4FCA7EB0507103F35
:1004A00007F01F0BCBF120060CFA0BFB2CFA06F61B
:1004B00044BFB3460026202FA4BF5E464FF0000B7A
:1004C0005BEA060C08BF4FF0010B19EB0B09ABFB05
:1004D000027C48EB0608C01B06FB02CC0BFB03CCDE
:1004E00071EB0C01C1E70B46024641464846BDE8A8
:1004F000F08B13B54FF000004FF00001AFF3008018
:10050000BDE81C40704710B5044600F051FC00687F
:10051000005DC00602D504F1200010BD204610BDCC
:100520001CB50C46064B7B4469460090204600F003
:1005300038FF04460020694600F046FF20461CBDF7
:100540009F0E00007CB51D4616460C00009001D0A1
:100550002044401E074B7B442A46694601903046A2
:1005600000F01FFF05461CB10020694600F02CFF7B
:1005700028467CBD790E00000FB41CB5084B06AAB6
:100580007B4469460090059800F00BFF044600206C
:10059000694600F019FF20461CBC5DF814FB000002
:1005A000450E00000FB47CB50C0009AA009001D0E4
:1005B0002044401E084B7B4469460190089800F097
:1005C000F0FE05461CB10020694600F0FDFE2846FD
:1005D0007CBC5DF814FB0000190E000070B50446E9
:1005E00085690068C10601D5302600E02026C007D5
:1005F00007D070BDD4E9012130469047206A401CE5
:1006000020626D1EF6D570BD70B504468569007810
:10061000C00707D170BDD4E9012120209047206A8E
:10062000401C20626D1EF6D570BD70B50C460546A7
:10063000012A05D02878800600D5EA69002302E067
:10064000012305E05B1C934202D2E05C0028F9D153
:10065000A869E618C01AA861286A184428622846C2
:10066000FFF7BCFF04E0D5E9012114F8010B904726
:10067000B442F8D32846FFF7C7FF70BD2DE9F0411B
:100680000646002410687529314616A510D000F0E2
:10069000F4FB002802DA404213A507E031688A071C
:1006A00001D512A502E0490704D511A5012401E0F6
:1006B00000F0ECFB00210A2206F1240709E0B0FB60
:1006C000F2FCB0FBF2F302FB1C0030307854184609
:1006D000491C0028F3D123462A463046BDE8F041A4
:1006E00000F0DDBB000000002D0000002B0000002A
:1006F00020000000F0B40D460188090502D5214C08
:100700007C4402E01F4C7C440E34002100F124069E
:1007100008E002F00F071209E75D42EA03721B09C5
:100720007754491C52EA0307F3D1027800231207D9
:1007300004D5702D06D009B1022311342246F0BC35
:1007400000F0ADBB01231034F8E770B504460D4648
:100750002146106800F09AFB024629462046BDE873
:1007600070400023C6E7D21D22F00703D3E900231F
:10077000C0E70368126843F0200303600823C361E5
:100780000023B7E751B200002DE9F05F8946044627
:100790004FF0000ADFF874B1FB44C0F820A02046F7
:1007A000E1688847002874D0252806D0D4E90121C3
:1007B0009047206A401C2062F1E700265F462046F1
:1007C000E16888472028054607DB312D05D27819D6
:1007D00010F8200C08B10643F1E7B00701D526F068
:1007E0000406C4F81CA00027C4F818A02A2D09D0BC
:1007F000284609F0A9FA38B304EB8708303DC8F859
:10080000185019E059F8041B204604EB8702916147
:10081000E1688847012F054618D1E069002820DAF1
:1008200026F020061DE0D8F8180000EB800005EB4C
:1008300040003038C8F818002046E168884705466F
:1008400009F082FA0028EED1012F0AD02E2D08D10E
:100850002046E16888477F1C0546022F46F02006A7
:10086000C4DBA069002803DA404246F00106A0611B
:10087000F00701D026F010066C2D0BD0682D09D0A2
:100880004C2D39D06A2D35D0742D35D07A2D33D0FA
:1008900016E038E0E1682F4620468847B842054612
:1008A00009D16C2F26D04FF48060E16806432046C2
:1008B0008847054604E06C2F1AD04FF48070064339
:1008C0000DB3A5F14100192802D8203546F4006681
:1008D0004A462946204626604E46FFF7B7FC80B1BF
:1008E00001280BD0F61D26F0070000F1080956E795
:1008F0004020E4E78020D8E70020D6E706F104098D
:100900004DE7284652E7206ABDE8F09FE1B10000BC
:100910000FB400B58DB010A9099000910B904FF065
:10092000FF300A9000200C90064878440690064854
:1009300078446A4607900F9909A800F051FE0DB05F
:100940005DF814FBD30C0000EB0C00002DE9FF5FF9
:100950001D464FF0FF3B91464FF000085F46D5E93A
:100960000146A96901987F1C8847296A8246884701
:100970000028F6D1BAF1FF3F0CD0002E24F4C06459
:1009800019DD600614D5BAF12B0F09D0BAF12D0F7D
:100990000ED103E0584604B0BDE8F09F44F48064F3
:1009A000A96901987F1C8847761E8246002E02DDC9
:1009B000BAF1300F03D0B9F1000F26D032E0A969A7
:1009C000761E01987F1C44F400748847002E8246EE
:1009D00005DDBAF1780F06D0BAF1580F03D0B9F19E
:1009E000000F10D01EE0B9F1000F02D0B9F1100FC6
:1009F00018D1A969761E01987F1C24F400748847D9
:100A00008246102002E0082000E00A20814609E02A
:100A1000A96908FB0908761E01987F1C44F400743C
:100A200088478246002E05DD4946504600F0C4FD49
:100A30000028EDDAE96901988847A00502D46FF033
:100A40000100A8E7E00725D1600613D5600502D5AF
:100A5000C8F1000000E0404629680A1D2A600968C4
:100A6000220501D5087015E0220701D5088011E0A4
:100A700008600FE02868011D29600068210502D583
:100A800080F8008006E0210702D5A0F8008001E090
:100A9000C0F8008038467EE7401ECAB210F8011F39
:100AA0008A4202D00029F9D10020704710B5431EB8
:100AB00013F8014F002CFBD105E011F8014B002C7D
:100AC00003F8014B03D0521EF7D20021197010BD5C
:100AD00030B505460B462A4613F8014B12F8010BB8
:100AE00008B1A042F8D01CB1002802D06D1CF1E77B
:100AF000284630BD40EA0103024630B59B0710D1BD
:100B00004FF0013400E008C208C91D1B9D4315EADF
:100B1000C41FF8D013F0FF0102F8011B0DD01B0A0F
:100B2000F8E711F8013B002B02F8013B05D011F862
:100B3000013B002B02F8013BF3D130BD10B5431C43
:100B400002E010F8011B71B18107FAD14FF00132B8
:100B500002C88C1A8C4314EAC211F9D0C01A0A06D2
:100B600003D0C01E10BDC01A10BD0A0401D0801EE3
:100B700010BD0902FCD0401E10BD40EA010370B553
:100B80009B072ED14FF00136042A2AD308C810C97A
:100B90009D1B9D43121F15EAC61517D0D8B2E1B2AE
:100BA000401A50EA056110D198B2A1B2401A50EA39
:100BB00005410AD123F07F4024F07F41401A50EADA
:100BC000052102D1180EA0EB146070BDA342DBD04A
:100BD00018BA21BA884201D9012070BD4FF0FF3008
:100BE00070BD0AB9002070BD10F8013B11F8014B2F
:100BF00063B1A3420AD1521E08D010F8013B11F88C
:100C0000014B1BB1A34201D1521EEDD1181B70BD87
:100C1000421E12F8013F002BFBD111F8013B002BC3
:100C200002F8013BF9D17047032A40F2308010F0FE
:100C3000030C00F0158011F8013BBCF1020F624477
:100C400098BF11F801CB00F8013B38BF11F8013B08
:100C5000A2F1040298BF00F801CB38BF00F8013BB5
:100C600011F0030300F02580083AC0F0088051F825
:100C7000043B083A51F804CBA0E80810F5E7121D30
:100C80005CBF51F8043B40F8043BAFF30080D2074F
:100C900024BF11F8013B11F801CB48BF11F8012B1B
:100CA00024BF00F8013B00F801CB48BF00F8012B3E
:100CB000704710B5203AC0F00B80B1E81850203AC8
:100CC000A0E81850B1E81850A0E81850BFF4F5AFEC
:100CD0005FEA027C24BFB1E81850A0E8185044BF76
:100CE00018C918C0BDE810405FEA827C24BF51F8E3
:100CF000043B40F8043B08BF7047D20728BF31F8D7
:100D0000023B48BF11F8012B28BF20F8023B48BF27
:100D100000F8012B70474FF000020429C0F0128048
:100D200010F0030C00F01B80CCF1040CBCF1020F9E
:100D300018BF00F8012BA8BF20F8022BA1EB0C0173
:100D400000F00DB85FEAC17C24BF00F8012B00F869
:100D5000012B48BF00F8012B70474FF0000200B58F
:100D6000134694469646203922BFA0E80C50A0E8CE
:100D70000C50B1F12001BFF4F7AF090728BFA0E87C
:100D80000C5048BF0CC05DF804EB890028BF40F848
:100D9000042B08BF704748BF20F8022B11F0804F8A
:100DA00018BF00F8012B704770477047704700006C
:100DB00010B500F049FC001D10BD00BF099E0000E9
:100DC000004870478C0A0020704770477047704792
:100DD00038B504460A4600206946AFF30080002873
:100DE00008BF38BD02460099204600F035FC0120BE
:100DF00038BD012001F0B8B8F8B5AFF30080054662
:100E000000200C46102000BF0646A819A0420DD9AC
:100E1000324669460020AFF30080070008BF01F0AA
:100E2000A3F80098A04218BF0546C419FFF7C8FFF1
:100E300005600746F01D20F007004619284600F01F
:100E40000AF8B44208BFF8BDA21B31463868BDE8B5
:100E5000F84000F001BC00210160C0E901107047BA
:100E60001020704710B500F0F3FB006810BD10B5FE
:100E7000044600F0EDFB046010BD09684A0501D589
:100E800040B27047C905FCD500B2704709684A05F1
:100E900001D5C0B27047C905FCD580B270472DE9B5
:100EA000F0470D4699469246044600F12408016831
:100EB000880604D5E06921F01001216000E00120DE
:100EC000A84201DD471B00E00027A1697A1902EB67
:100ED0000900081AA0612078C00602D42046FFF756
:100EE0007DFB002608E0D4E901211AF806009047AE
:100EF000206A401C761C20624E45F4DB2078C00638
:100F00000AD52046FFF76AFB06E0D4E9012130202C
:100F10009047206A401C2062381EA7F10107F4DCCC
:100F200007E0D4E9012118F805009047206A401C29
:100F30002062281EA5F10105F3DC2046FFF764FBC3
:100F40002078000602D50220BDE8F0870120FBE7EB
:100F500011680268006A530501D508700AE0D305DC
:100F600001D5088006E0130603D5C217C1E90002C7
:100F700000E008600120704770472DE9FF4F0C46E4
:100F80001E464FF0FF378BB0D2E90001DDF86080DC
:100F90000A908A46C1F30A5505B93D460021084624
:100FA0004FF00000BAF1000F00F4400005DA00EB4A
:100FB00080004FF4400101EA50004FEA9059B9F126
:100FC000010F00DDB9460A9850EA4A000ED044F6F7
:100FD0001050A5F2FF3545432F14B8F1000F1ED075
:100FE0007542291E1EDDC9F100021CE0B8F1010F97
:100FF0004FF0000001D0302103E0F24305E021541E
:10100000401CB042FBDB30460022002121540B99EA
:10101000C1F80880C1E900200FB0BDE8F08FBD1B0A
:101020006D1CDEE74A4600DA694206A800F00AFFB6
:1010300006AB93E8070003AB83E8070050460A9924
:1010400001F05CF88DE80700A0F500501F38009013
:101050000398002D0ADD42F21F014A46084400238E
:1010600003A90390684601F0C5FA09E0A0F5005015
:101070004A461F38002303A90390684601F0CFFABF
:101080008DE807000004000C03D04FF0FF3041084A
:1010900000E01046B8F1000F03D000220092154680
:1010A0001EE0751E05D400F0F1FA303262556D1E57
:1010B000F9D5B3460122084302D000227F1C04E088
:1010C0002078302801D100227F1E002A099784D081
:1010D0001DE0112D07DA00F0D9FA303262556D1C8F
:1010E00050EA0102F5D1084302D00098C8B10EE0E1
:1010F0000021681E05E0235C625C63542254401E9C
:10110000491C8142F7DBAB46A81B401E099000201A
:1011100004F80B000B98099AC0F80880C0E9002B6E
:101120007AE711264FF0000857E72DE9F04F88467F
:101130000446D21D22F0070191B0D1E90001CDE9AA
:101140000A0107F0E1FE02460B98C00F01D02D20E6
:1011500007E02068810701D52B2002E0202101EA69
:10116000C000032A099001D0072A05DB0346414647
:10117000204600F057FC0BE12078800601D5E0699D
:1011800000E00620B8F1650F814606D0B8F1660F81
:1011900018D0B8F1670F70D131E00020B9F1110F0C
:1011A000009001DB112301E009F101030AAA01A962
:1011B0000CA8FFF7E2FEDDE90C70002609F101053D
:1011C000834647E001204B4600904FF000470AAAB3
:1011D00001A90CA8FFF7D1FEDDE90DB00C995D4621
:1011E000002610B909F101000D18B9EB050003D470
:1011F000C0F1FF3609F10105A5EB09002BE0B9F1BB
:10120000010F01DA4FF001090020B9F1110F009030
:10121000484601DD112300E003460AAA01A90CA8F3
:10122000FFF7ABFEDDE90C704D46002683462078C3
:1012300000070AD4AB4500DA5D4601A8012D04DDA4
:10124000411911F8011C302907D04F4502DA17F176
:10125000040F04DA012082460FE06D1EEEE7002F36
:1012600002DCED1B3E4403E0781CA84200DD7D1C3F
:10127000B81B00F1010A4FF000472078000703D4A3
:10128000AA4501DB4FF0FF3A0021B7F1004F0DF105
:1012900043088DF8431024D002202B23002F01DABD
:1012A0007F422D230A21021EA0F1010000DC5FB164
:1012B00097FBF1FC97FBF1F201FB1C7C17460CF14C
:1012C000300C08F801CDEEE7A8F101000370218889
:1012D000090501D5452100E06521A0F1010800F8CC
:1012E000011C09980FA9A1EB0807FF1D00B10120FF
:1012F000411901EBEA70A1693844081A401EA06147
:101300002078C00602D42046FFF768F9099828B172
:10131000D4E901219047206A401C20622078C00651
:1013200022D52046FFF75AF91EE0002E04DBB34514
:1013300002DD01A8805D00E03020D4E90121904762
:10134000206A401C2062761CAAF101005FEA000AB4
:101350000AD100F079F9C0680168405CD4E9012144
:101360009047206A401C2062281EA5F10105DCDCA4
:1013700007E0D4E9012118F8010B9047206A401CCE
:101380002062381EA7F10107F3DC2046FFF73CF985
:10139000032011B041E6000001694A1C026108788F
:1013A000704700B58FB0CDE90131002105910549A5
:1013B0007944CDE9031011466846FFF7E5F90FB00F
:1013C00000BD0000E5FFFFFF0A6802F8010B0A609C
:1013D0007047D1E900239A4202D2531C0B6010706F
:1013E000704710B5436913B1AFF3008001E0FFF718
:1013F0001CF9012010BD127800F124010A700022AE
:101400004A700122EDE711684FF0FF32E9E7000072
:101410002DE9FF5F15468A460446DFF8AC80F844A4
:101420000027D8E900103E46CDE9001010E03AF858
:1014300016106A4602A800F077FD411C07D02178FB
:10144000890603D5E269391891420DD80744761C04
:101450002078800602D5E069B84205DDAE42E6DBC1
:101460003AF816000028E2D1A069C01BA06120460E
:10147000FFF7B4F8D8E90010CDE90010002017E01C
:101480003AF818106A4602A800F04EFDB0F1FF3F8E
:1014900081460BD000250DF1080B05E0D4E90121B0
:1014A0001BF8050090476D1C4D45F7D308F101006E
:1014B000B0428046E4DB206A384420622046FFF7D1
:1014C000A3F8BDE8FF9F0000F6A500002DE9F0415C
:1014D0008046D21D22F007020025D2E90002F5293C
:1014E00015A614D0011E72F1000106DA0023D0EB1C
:1014F000030063EB020211A608E0D8F800108B0786
:1015000001D50FA602E0490701D50EA60125114617
:10151000002408F1240704E000F0B8F830323A550E
:10152000641C50EA0102F7D12B4632462146404660
:10153000BDE8F041FFF7B3BC000000002D00000043
:101540002B0000002000000030B4002100F1240432
:1015500008E002F00705D208303542EA4372DB08A2
:101560006554491C52EA0305F3D10468002310A214
:10157000250707D5A40600D421B1C46901230DA213
:10158000641EC46130BCFFF78ABC10B50446214616
:101590001068FFF77BFC02462046BDE810400023A0
:1015A000D2E7D21D22F00701D1E90023CCE70000E9
:1015B00000000000300000003A2800D2303820F04F
:1015C0002002412A01D3A2F13700884201D34FF013
:1015D000FF30704702681144137801601846704765
:1015E000D16005497944516104497944116200216F
:1015F0001161114600F06CBAEDFFFFFF29010000F8
:10160000426842B1016811F8013B23B1521EC0E9A2
:101610000012184670470121C160881E7047426859
:101620005AB1C368016843B983688B4205D0491E2B
:10163000521CC0E90012002070474FF0FF30704785
:1016400000487047840A002000487047A40A002020
:1016500000487047840A0020034640688C460028F2
:1016600018BF88423CBF03464068F8D31868184446
:10167000884207D00CF1030020F00700001D411A3A
:10168000521A0146081D0A60FEF79FBE30B5B0F140
:101690000A024FEA900E71F100034EEA817EB0EB30
:1016A0000E0061EB91014FEA101E4EEA017E10EB35
:1016B0000E0041EB11114FEA102E4EEA016E10EBB5
:1016C0000E0041EB11214FEA104E4EEA014E10EB95
:1016D0000E0041EB1141401841F100014FEAD000EA
:1016E00040EA41704FEAD10110EB80054FEA8104D6
:1016F00044EA907444EB01046D1944EB0404521B5A
:10170000A3414FF0000348BF0A3200D530BD401C52
:1017100041F1000130BD10B50446FFF749FB0068F8
:10172000005D00F0010010BD2DE9F04F04460D46AC
:10173000D21D22F0070089B0D0E90097484639460B
:1017400007F0E2FB0246F80F01D02D2307E02068E6
:10175000810701D52B2302E0202101EAC0038DF887
:1017600020300BB1012000E00020032A824601D086
:10177000072A04DB2946204600F054F93FE120788F
:10178000800601D40D2500E0E569C7F30A560D2D4A
:1017900049DA00214FEA175B08464FF00000002F9E
:1017A00000F4400007DA00EB80004FF4400100EB4A
:1017B000D07001EA60008115012901DD4FF0FF3191
:1017C00000224FEA850CBCF1180F06D31346ACF18A
:1017D00018004FF08052C24003E04FF4801323FA08
:1017E0000CF30CF10C0CBCF1200F04D3ACF1200C69
:1017F00009FA0CF001E007FA0CF000294FF000485C
:1018000001DD18B90FE00ED140450CD319EB0209E8
:101810005F4121B9404502D19F4329EA0209BBEB50
:10182000175F00D0761C2088000502D57B487844DD
:1018300002E07A487844193808AA302302F80A30BE
:10184000037C0AF10101002E0AF1020A53546A4690
:1018500002DC4FF0300101E04FF031014FF00108A0
:101860008DF8001002D0A6F2FF3603E059EA4701D6
:1018700000D06B4E002D02DC2178090704D54FF013
:1018800002082E218DF80110C44600210BE0C7F399
:1018900003433F01C35C491C6D1E02F80830052953
:1018A00008F1010801DA002DF1DC00210CE000EB69
:1018B0001973491C1B786D1E082902F808304FEA7D
:1018C000091908F1010801DA002DF0DC21688B0606
:1018D00002D516E0A8F10108E04505DD02EB08039A
:1018E00013F8013C302BF5D0B8F1000F09DD02EB05
:1018F000080313F8013C2E2B03D1090701D4A8F1EA
:101900000108002D05DD3E2102F808106D1E08F1CA
:101910000108407C002E02F8080008F1010804DAF2
:101920002D20764202F8080002E02B2002F8080081
:101930000A214FF47A70864208F101080BDB96FB0E
:10194000F0F3303302F8083096FBF0F308F10108A9
:1019500000FB136601E0642E0CDB642096FBF0F3C1
:10196000303302F8083096FBF0F308F1010800FB71
:10197000136601E00A2E06DB96FBF1F0303002F828
:10198000080008F1010896FBF1F001FB106030300F
:1019900002F80800A16908F1010808EB050202EB52
:1019A0000A00081AA0612078C00602D42046FEF77B
:1019B00015FE216A08AE01EB0A00206204E0D4E9BA
:1019C000012116F8010B9047BAF1010AF7D22078ED
:1019D000C00602D52046FEF701FE6E4609E016F865
:1019E000010B3E280FD0D4E901219047206A401C0A
:1019F0002062B8F10108F2D22046FEF705FE09B0D8
:101A00000320BDE8F08F206A2844206203E0D4E977
:101A10000121302090476D1EEBD3F8E709A20000AA
:101A200002FCFFFF2DE9F0411F4604460326016832
:101A3000072A01F4006004DB08B116A505E016A52D
:101A400003E008B115A500E015A521F01000206005
:101A5000A069C01EA0610FB1401EA0612046FEF724
:101A6000BDFD4FB1D4E9012138469047206A401CA2
:101A70002062C01C206206E0206AFAE7D4E9012156
:101A800015F8010B9047761EF8D22046FEF7BCFDF4
:101A9000BDE8F0814E414E006E616E00494E460039
:101AA000696E660010B5436913B1AFF3008001E0C1
:101AB000FFF7AEFC012010BD128800F124018284E2
:101AC0000022C2840122EDE711684FF0FF32E9E7FE
:101AD0002DE9F34F4FF0000A0C4656468DB0012019
:101AE0000C9001F10C000B9062690B98012190475A
:101AF000051E2DD0252D2CD0216A8847C0B16269E2
:101B00000B9801219047216A88470028F7D1626924
:101B1000411E0B98904700E0761CA1690D988847FC
:101B2000216A88470028F7D1E1690D988847DBE7EB
:101B3000A1690D988847A842074601D1761CD3E7D2
:101B4000E1690D9888477F1C02D1BAF1000F6FD070
:101B50006CE162690B9800273D46394690472A2878
:101B600004D162690B98012190470125DFF8D082EA
:101B700062690B9801219047A0F130010A290AD22D
:101B80004745E5DC07EB870100EB4107303FDFD439
:101B900045F01005ECE7E90601D46FF000476C282A
:101BA0000AD04C2814D0682815D06A280DD0742883
:101BB0001CD07A281AD01DE062690B980121904749
:101BC0006C2802D045F0040514E045F002050DE054
:101BD00045F020050AE062690B98012190476828CA
:101BE00002D045F0080505E045F4006562690B98F0
:101BF00001219047C4E9015765283DD019DC5828D8
:101C00007AD00CDC452837D004DC252826D04128A2
:101C10009ED131E046282FD0472899D12CE05B286F
:101C200077D0612828D063287CD0642823D15AE05B
:101C3000F7E06F2848D008DC66281DD067281BD045
:101C4000692821D06E2816D127E0702845D0732846
:101C500068D0752847D078280DD14DE0A1690D983E
:101C60008847252805463FF469AFE1690D98884704
:101C70006D1C3FF46AAFD9E00D9923466A466FF0B8
:101C80000100AFF30080C6E045F0400023464FF06E
:101C900000026060A80736D43EE0E8077FF447AF53
:101CA0002068011D21600068290501D506701BE729
:101CB000290701D5068017E7A90703D5F117C0E961
:101CC000006111E706600FE745F0400023464FF042
:101CD00008026060A80716D41EE040F60E0125EA4F
:101CE0000100606016E045F0400023464FF00A0214
:101CF0006060A80707D40FE045F040006060A807C7
:101D000008D5234610220D996FF00100AFF3008033
:101D100081E007E0102223460D996FF00100FEF7E5
:101D200015FE78E04FF0000963284F46C8464B4641
:101D3000CB4602D05B2807D039E02079C00601D419
:101D40000120A060012732E06269D4F80CB00B9842
:101D5000012190475E2807D14FF001094946626989
:101D6000D4F80CB00B989047216939B900210A4684
:101D700003AB43F82120491C0829FADBD8B32169B9
:101D800049B308F1010862690B98012190475D2869
:101D9000F4D1B9F1000F09D0002003A951F8202097
:101DA000D24341F82020401C0828F7DB03AB206910
:101DB000002820794FEA40701ED05B462246CDF8BD
:101DC0000080CDE901970D9900286FF0010020DA1D
:101DD000AFF300801FE0C11703AA00EBD1614B11E4
:101DE00021F01F0102EB8302411A13680120884091
:101DF00003431360C7E719E00D99224600286FF0EE
:101E00000100009702DAAFF3008004E0AFF3008036
:101E100001E0AFF3008000280ADA401C06D10C98DC
:101E200020B14FF0FF300FB0BDE8F08F5046FAE719
:101E3000E90701D10AF1010A064400200C9053E69B
:101E4000CCCCCC0C2DE9F047814616468AB03548FB
:101E500078440DC88DE80D0032487844801C03ACEE
:101E60000DC884E80D0041F69B300844372190FBF3
:101E7000F1F290FBF1F5A5F1800501FB12041B3C8A
:101E800002D56442012000E00020DFF898A08046DF
:101E90000027FA44AAF1BE0A0EE0E0070AD0324653
:101EA000684607EB470101230AEB810100F0B7FB0D
:101EB0008DE8070064107F1C002CEED1194F7F4481
:101EC000AE3F19E0E80715D007EB04100DF1180A32
:101ED00090E80E008AE80E00C068F04201D198191F
:101EE00008903246012306A903A800F098FB03AB33
:101EF00083E807006D10641C002DE3D14FF001034F
:101F000032466946B8F1000F03A802D000F072FB18
:101F100001E000F084FBC9E90001C9F808200AB01B
:101F2000BDE8F087789C000070B516460C46054663
:101F3000FEF73EFF036893F80101012806D0FF2C4D
:101F40000FD8185D68B101202C7070BDD3F807015F
:101F50003246214603F2071303442846BDE8704089
:101F600018474FF0FF3070BD10B500F039F8BDE8EC
:101F7000104000F02FB870477546FFF761FBAE4682
:101F800005006946534620F00700854618B020B585
:101F9000FEF7DAF9BDE820404FF000064FF00007E9
:101FA0004FF000084FF0000B21F00701AC46ACE801
:101FB000C009ACE8C009ACE8C009ACE8C0098D466E
:101FC000704710B50446AFF300802046BDE81040CE
:101FD000FEF7A5B9002801D000F06AB870470000EC
:101FE00010B5012805D0002103A000F067F80120FA
:101FF00010BD09A1F8E7000053494752544D454D23
:102000003A204F7574206F662068656170206D6599
:102010006D6F7279000000003A2048656170206D94
:10202000656D6F727920636F72727570746564008C
:102030004FF0013C50F8042B51F8043B9A4221D157
:10204000A2EB0C03934313EACC1317D150F8042BE3
:1020500051F8043B9A4215D1A2EB0C03934313EAC7
:10206000CC130BD150F8042B51F8043B9A4209D100
:10207000A2EB0C03934313EACC13DBD04FF0000028
:10208000704700BFD01A01BAB1FA81F101F018010E
:1020900022FA01F0CB40C1F12001DBB2C0B2C01A7C
:1020A0002CFA01F3D11A914311EAC311E6D170471A
:1020B00001491820ABBEFEE72600020070B50546B8
:1020C0000C460A2000E06D1C00F011F835B12878AC
:1020D0000028F8D102E0641C00F009F814B120785F
:1020E0000028F8D1BDE870400A20AFF3008008B5A1
:1020F00069468DF800000320ABBE08BD5FEA400CC6
:1021000008BF91F0000F4FEA8C234FEAC12243EA47
:1021100051514FEA1C5018BF00F5F0404FEA300013
:1021200018BF41F000415FEA6C5C00F02980BCF10F
:10213000FF3F08BF40F080407047130C06BF1204F9
:102140004FF0100C4FF0000C130E04BF12020CF1F4
:10215000080C130F04BF12010CF1040C930F04BF01
:1021600092000CF1020CD30F04BF52000CF1010CD1
:1021700011464FF00002A0F11F00A0EB0C007047C9
:1021800011F0004F08BF704731F000413FF4D5AF68
:102190000B0C06BF09044FF0100C4FF0000C0B0E97
:1021A00004BF09020CF1080C0B0F04BF09010CF16C
:1021B000040C8B0F04BF89000CF1020CCB0F04BF81
:1021C00049000CF1010CCCF12003A0EB0C0022FA29
:1021D00003F302FA0CF241EA030100F10100704737
:1021E00020F07F4C80EA030023F07F47ACEB07032D
:1021F00003F57C5300F0004003F1FF032DE9804913
:102200004FEA154B09B44FEA144325EA0B4E24EA72
:1022100003480FF2042606EB132749083E785FEACD
:10222000320203FB0667C7F5000707FB06F64FEA15
:1022300054374FEAD64606F1020607FB066CCCF18E
:10224000005C4FEA1C472CEA074C07FB06F40CFB2A
:1022500006F504EB15464FEA961634BF00204FF002
:1022600000404FEAD13706FB07FC4FEA1C4C0CFB41
:102270000BF7D21B03FB0CF761EB07010CFB0EF70E
:10228000B0EB074072EB17420CFB08F734BFA2EB30
:102290000742B2EB074261EB17414FEA0C444FEAA9
:1022A000910706FB07FC4FEA1C4C0CFB0BF7B0EB4D
:1022B000C74072EB573203FB0CF734BFA2EBC742A7
:1022C000B2EBC74261EB57310CFB0EF7B0EBC70026
:1022D00072EB57720CFB08F734BFA2EBC702B2EBEC
:1022E000C70261EB5771039F4FEA816141EA921186
:1022F00004EBCC044FEAD1374FEA826206FB07FCBD
:1023000042EA90124FEA80604FEA1C4C0CFB0BF73C
:10231000D21B03FB0CF761EB07010CFB0EF7B0EBD4
:10232000074072EB17420CFB08F734BFA2EB0742E1
:10233000B2EB074261EB17414FEA8C554FEA910728
:1023400004EB9C2406FB07FC4FEA1C4C0CFB0BF730
:10235000B0EBC74072EB573203FB0CF734BFA2EB74
:10236000C742B2EBC74261EB57310CFB0EF7B0EB43
:10237000C70072EB57720CFB08F734BFA2EBC70221
:10238000B2EBC70261EB577115EB4C254FEA816147
:1023900041EA92114FEA82624FEAD13742EA901243
:1023A00006FB07FC44F100044FEA80604FEA1C4C36
:1023B0000CFB0BF7D21B03FB0CF761EB07010CFBCB
:1023C0000EF7B0EB074072EB17420CFB08F734BF77
:1023D000A2EB0742B2EB074261EB174115EB1C156C
:1023E0004FEA813141EA92414FEA823242EA904219
:1023F0004FEA80304FEA0C7644F1000448EA034388
:102400004EEA0B484FF0000EB2EB080C71EB0307DD
:1024100024BF624639464EEB0E0E4FF0000B0018FB
:10242000524149414BEB0B0BB2EB080C71EB03072C
:102430007BF1000B24BF624639464EEB0E0E4FF087
:10244000000B0018524149414BEB0B0BB2EB080C4F
:1024500071EB03077BF1000B24BF624639464EEB5C
:102460000E0E51EA020718BF46F0010616EB0E7673
:1024700055F1000254F1000103D5BDE88901BDE822
:102480000088BDE88901BDE80048B619524141EB1A
:102490000101A3F10103704780807F7E7D7C7B7A00
:1024A0007978777676757473727171706F6E6E6D00
:1024B0006C6C6B6A6A6968686766666564646363A6
:1024C00062616160605F5F5E5E5D5D5C5C5B5B5A2C
:1024D0005A59595858575756565555555454535399
:1024E00052525251515050504F4F4F4E4E4D4D4DF4
:1024F0004C4C4C4B4B4B4A4A4A494949484848473F
:10250000474747464646454545444444444343437C
:102510004342424242414141002B9C4630D4770025
:102520002BD01CB54FEA370703B44FF010004FF023
:102530001001BAF1000F06D0BCF1000FDCBF40F073
:10254000080040F008014FF000000FBCBDE810404B
:102550000BF1010BBBF1010F08BF5FEA170722BFA8
:1025600012F1010211F101014FF0004143F10003AA
:1025700000F0004043EA00007047F9D35708D0E765
:1025800046EA064613F1400F4FEA16461FDD13F1E7
:10259000200FDFBF16430A46002120335B42BED026
:1025A000C3F1200746EA064602FA07F74FEA164645
:1025B00046EA0706C3F1200722FA03F201FA07F7F9
:1025C00021FA03F14FF0000342EA0702A7E746EAC7
:1025D000020646EA06464FEA164646EA0106BCBF30
:1025E00046EA0646360C4FF000034FF000024FF06B
:1025F000000194E72DE9804C9A46934670B491E827
:10260000380007C831EA400C48BF34EA430C03D510
:10261000FFF7E6FDFFF780FFF0BCBDE8008C2DE979
:10262000804C9A46934670B491E8380007C810F081
:10263000804F08BF13F0804F03D100F005F8FFF77B
:102640006BFFF0BCBDE8008C20F07F4780EA030000
:1026500023F07F4C07EB0C03A3F57C5300F0004004
:10266000A3F1FE0392F0000F00F0B38095F0000F8D
:1026700000F077802DE901494FEA11404FEA1446F6
:1026800021EA004800FB06FC24EA064708FB06F6A0
:1026900007FB08F800FB07F718EB06484CEB164C55
:1026A0004FEA124B18EB07484FEA15464CEB174020
:1026B00022EA0B4E0BFB06FC25EA06470EFB06F64C
:1026C00007FB0EFE0BFB07F71EEB064E4CEB164C02
:1026D0004FF000061EEB074E4CEB174B18EB0B08A8
:1026E00040F1000018EB0E0B58EB000840F1000021
:1026F0008F1A4FF000013CBFC943661B14BFB5EBF6
:10270000040C00213CBFC943F61B4FEA17444EEAB4
:102710008E0E27EA04454FEA1C4704FB07622CEAA9
:10272000074C05FB07F70CFB05F604FB0CFC16EB4E
:10273000074642EB174216EB0C4642EB1C421BEBE2
:10274000060658EB0202414146EA9E0601D5BDE865
:102750000189B619524141EB0101A3F10103BDE822
:1027600001894FEA14454FEA114724EA054621EA58
:10277000074C05FB07F406FB07F70CFB06F105FB0E
:102780000CFC11EB074144EB17444FEA124711EBE5
:102790000C4144EB1C4422EA074C05FB07F206FB04
:1027A00007F70CFB06F605FB0CFC16EB074642EBA5
:1027B000174216EB0C4642EB1C456A1854F1000117
:1027C00048BF7047B619524141EB0101A3F1010323
:1027D000704795F0000F37D04FEA11424FEA144787
:1027E00021EA024624EA074C02FB07F106FB07F741
:1027F0000CFB06F402FB0CFC14EB074441EB174105
:102800004FEA154714EB0C4441EB1C4125EA074CF9
:1028100002FB07F506FB07F70CFB06F602FB0CFCB8
:1028200016EB074645EB174516EB0C4645EB1C42ED
:10283000121951F1000148BF7047B619524141EBDE
:102840000101A3F1010370474FEA14454FEA114714
:1028500024EA054621EA074C05FB07F106FB07F7CA
:102860000CFB06F24FF0000605FB0CFC12EB0742D6
:1028700041EB174112EB0C4251EB1C4148BF704732
:10288000921841EB0101A3F1010370472DE9F047D4
:10289000894600210D460C466FF02B0CDFF820A175
:1028A000089E37E0002701E0491C7F1CB14204D29A
:1028B00013F80180B8F1200FF6D0B1422CD0A6EB6E
:1028C0000108B8F1020F04D313F80180B8F10D0F1D
:1028D00002D013F8018003E003EB010898F80180AF
:1028E000B8F10A0F15D067B95F5C3D2F0CD07F2F70
:1028F00007D800BF1AF807707F2F02D0402F07D2E9
:1029000034B16046BDE8F087641C022CF9D8F1E7C9
:102910006D1C491CB142C5D3A5B1EE0806EB4606B5
:10292000770005F0070505EB4506072505EB46058D
:1029300007EBD5052C1B08B1A14505D26FF0290086
:102940001460DFE7002038E0032600252F46044608
:1029500030E000BF93F800C0BCF10D0F28D0BCF1EF
:102960000A0F25D0BCF1200F22D01AF80CC0BCF100
:10297000400F0AD04FF0000865F39F1C7F1CA6EBA8
:1029800008066546042F03D012E04FF00108F3E774
:1029900000276EB14FEA154C04F801CB012E07D980
:1029A0004FEA152C04F801CB022E01D904F8015B83
:1029B000491E5B1C0029CDD1201A10600020A1E720
:1029C000D5B800082DE9F04F0025099EAB46AEB101
:1029D0000327B6FBF7FCB6FBF7F407FB1C6CBCF156
:1029E000000F01D04FF0010C64446FF0290CB4F1DA
:1029F000804F06D34FF0FF3010600FE0C2F800B0F8
:102A000064E0A400641CA14207D330B1B6FBF7F127
:102A100001EB410A04462F492AE014606046BDE8F4
:102A2000F08F00BF13F801CBED1C13F8019B4FEAA8
:102A30009C084FEA0C1C0CEB291C13F8017B11F8C5
:102A400008800CF03F0C04F8018B11F80CC004F85E
:102A500001CB4FEA890C0CEBA71C0CF03F0C07F0E4
:102A60003F0711F80CC004F802CBCF5D04F8017CDD
:102A70005545D7D3B54224D213F801CB3D276D1C61
:102A8000B54201D21B7801E04FF000034FEA9C05EC
:102A90004D5D04F8015B4FEA0C1505EB231505F0BD
:102AA0003F054D5D04F8015B07D24FF03C0505EA98
:102AB0008303C95C04F8011B01E004F8017B04F8FE
:102AC000017BA4EB0000106084F800B04FF0000020
:102AD000A5E7000095B80008FEE7000001460F4892
:102AE00030B442000E4B072915D2DFE801F0140480
:102AF00006080A0C0F0001210AE0012104E001216F
:102B000005E0002104E00021104601E00021184604
:102B100030BC04F059BF30BC70470000504B14006B
:102B2000F0E13C002DE9F04186B000251421684613
:102B3000FEF713F94FF00008022080240127CDE9A9
:102B40000280CDE900474FF090466946304600F0DC
:102B5000C3FA00228021304600F0E7FB31A134485F
:102B600006F04FF9122000F097FA0122802130463A
:102B700000F0DBFB2FA12E4806F043F9142000F0F3
:102B8000B1F814216846FEF7E8F8CDE90048694637
:102B90003046029700F0A0FA8021304600F0C0FBDA
:102BA000142000F09FF88021304600F0B9FB244C3F
:102BB00028B125E0012000F095F86D1CEDB28021D0
:102BC000304600F0ADFB08B9642DF3D3002504E0D6
:102BD000012000F087F86D1CEDB28021304600F036
:102BE0009FFB012801D1642DF2D3002500F02AF8C3
:102BF00060556D1CEDB2052DF8D3322000F072F84F
:102C000021786078E3780A18A07803441A4423797D
:102C1000934205D1E171A071012006B0BDE8F081B9
:102C20000020FAE77465737420310D0A000000007B
:102C3000B40200207465737420320D0A0000000095
:102C4000510000202DE9F0410024254626464FF092
:102C5000904804E0012000F045F86D1CEDB28021A1
:102C60004746404600F05CFB08B9642DF2D30025CE
:102C7000282000F037F88021B846384600F050FB95
:102C8000012801D0002706E0012704E0012000F020
:102C900029F86D1CEDB28021404600F041FB01286F
:102CA00001D1642DF2D36006761C0025F6B247EA06
:102CB0001064082ED3D32046BDE8F08110B5FFF78D
:102CC00031FF002808D005484179491CC9B241713B
:102CD000802901D30021417110BD00005100002066
:102CE0007047000070B54FF6FA75094E281A84B285
:102CF00030684462304601F0C3FB306801E0416A4D
:102D00008CB2AC42FBD3BDE87040014801F0F8BB87
:102D1000C005002010B54FF400710348FDF7FBFF1C
:102D200002490020088010BDD407002024000020A4
:102D300010B5044600F028F958B90AA10B48FDF770
:102D4000C7FE30B13A21FDF7A7FE002800D0401C95
:102D500010BD052000F0A0F92046641EA4B2E9D2FF
:102D600010BD00004950442C00000000D407002092
:102D700010B5FFF7CFFF04F0B5FA4FF47A7402E014
:102D8000204600F089F91EA11EA000F0B5F8002829
:102D9000F6D102E0204600F07FF919A11BA000F057
:102DA000ABF80028F6D102E0204600F075F914A136
:102DB0001AA000F0A1F80028F6D102E0204600F0A9
:102DC0006BF91AA11BA000F097F80028F6D121A1F9
:102DD000284806F016F828A1264806F012F802E066
:102DE000204600F059F92CA12DA000F085F800280C
:102DF000F6D1BDE8104036A11E4806F002B800002A
:102E00004F4B000041540D0A0000000041542B4379
:102E1000574D4F44453D310D0A00000041542B43AE
:102E200057444843503D312C310D0A00474F542040
:102E30004950000041542B43574A41503D224D61B7
:102E400073616E222C223132333435363738220DFD
:102E50000A000000496E666F3A206E6574776F72E3
:102E60006B20696E697420737563636573730D0AF3
:102E700000000000B4020020496E666F3A20636FC4
:102E80006E6E656374204D51545473205365727691
:102E900065722E2E2E0D0A00434F4E4E45435400B0
:102EA00041542B43495053544152543D22544350B2
:102EB000222C226D717474732E6865636C6F756457
:102EC000732E636F6D222C313838330D0A000000E9
:102ED000496E666F3A20636F6E6E656374204D5164
:102EE00054547320736572766572207375636365DD
:102EF00073730D0A0000000070B50E460546C82425
:102F0000FDF71CFE82B229460B4805F095FF0EE046
:102F100000F03AF840B931460848FDF7D9FD18B13C
:102F2000FFF7F8FE002070BD0A2000F0B5F8641E1F
:102F3000E4B2EDD2012070BD70040020D40700205F
:102F400030B589B00C460546FFF7E4FE224608A1DD
:102F50006846FDF711FB0AA16846FFF7CDFF002880
:102F600004D122462946074805F066FF09B030BD66
:102F700041542B43495053454E443D25640D0A00AE
:102F80003E000000700400200648018831B14288EC
:102F9000914205D100210180084670470120704709
:102FA0004180FBE7240000204FF4005000F088B877
:102FB00072B6FEE710B590F8253000210122022BF1
:102FC00003D00421C163012122E003681C6824F0BE
:102FD0000E041C60836C1C6824F480741C600368FD
:102FE0001C6824F001041C6090F84430046C03F069
:102FF0001F0302FA03F36360D0E913345C60436D8E
:1030000033B11C6824F480741C60D0E916345C6011
:1030100080F82520002280F82420084610BD70B5D5
:1030200090F82520002401212346022A07D00422FB
:10303000C26380F8251080F82430012429E002685A
:10304000156825F00E0515600268156825F0010564
:103050001560826C156825F48075156090F8442021
:10306000056C02F01F0201FA02F26A60D0E9132532
:103070005560426D32B1156825F480751560D0E950
:103080001625556080F8251080F82430816B01B139
:103090008847204670BD000070B5044600F04AF92C
:1030A0000546601C02D004484068044400F042F920
:1030B000401BA042FAD370BD1400002070470000EE
:1030C000044910B50A68024202D00860FFF7F6FF13
:1030D00010BD0000140401402DE9F04FDFF82092EC
:1030E000002301260324A9F1040B85B00F2709F161
:1030F000040AABF1040EFAE006FA03F52A407CD08C
:1031000091F804C00CF0030CBCF1010F02D0BCF12B
:10311000020F26D1D0F808C0CDF800C04FEA430C0A
:1031200004FA0CF8CDF810C0DDF800C02CEA080C49
:10313000CDF800C0D1F80C80DDF810C008FA0CF80A
:10314000DDF800C048EA0C08C0F80880D0F804C0D8
:103150002CEA050C0D79C5F300159D4045EA0C05D8
:1031600045600D79ED43AD070ED0C5684FEA4308C1
:1031700004FA08FC25EA0C05D1F808C00CFA08FC92
:103180004CEA050CC0F80CC00D7905F00305022DC2
:1031900016D1DD0800EB850CCDF808C0DCF82080E6
:1031A0005D074FEAD56C07FA0CF528EA05080D69AA
:1031B00005FA0CF5DDF808C045EA0805CCF8205002
:1031C00005684FEA430CCDF808C004FA0CFC25EA68
:1031D0000C0591F804C00CF00308DDF808C008FAEB
:1031E0000CF848EA0508C0F800804D6815F4403F27
:1031F0007CD0444DD5F860C000E077E04CF0010C85
:10320000C5F860C02D6E23F0030C05F00105009594
:103210003D4D65440295AD684FEA837C4FEA1C78CA
:1032200007FA08FC25EA0C05B0F1904F06D0DFF84C
:10323000DCC0604505D14FF0010C20E04FF0000CE0
:103240001DE0DFF8CCC0604502D14FF0020C16E063
:10325000DFF8C0C0604502D14FF0030C0FE0DFF88B
:10326000B8C0604502D14FF0040C08E0DFF8ACC0F4
:10327000604502D14FF0050C01E04FF0060C0CFA4E
:1032800008FC4CEA050C029DC5F808C0D9F80050AE
:10329000CC46D1F8048095435FEAC82800D5154391
:1032A000CCF80050DAF80050D446D1F804809543A9
:1032B0005FEA882800D51543CCF80050DBF80050B1
:1032C000DC46D1F8048095435FEA883800D5154381
:1032D000CCF80050DEF80050F446D1F80480954355
:1032E0005FEAC83800D51543CCF800505B1C0A686B
:1032F00032FA03F57FF400AF05B0BDE8F08F0000AF
:103300000804014000100240000001400004004891
:1033100000080048000C0048001000480014004855
:103320000069084000D0012070470AB181617047F0
:1033300081627047014880687047000014000020D7
:10334000024881684268114481607047140000207F
:1033500010B50024032000F073F8002000F008F8F6
:1033600008B1012401E000F025F8204610BD00005E
:1033700070B50E4E05460024706898B14FF47A710E
:10338000B1FBF0F00A490968B1FBF0F000F048FF2A
:1033900040B9102D06D200222946501E00F030F808
:1033A000356000E00124204670BD000014000020BC
:1033B000200000200A4882B0016E41F00101016640
:1033C000016E01F001010091816D41F08051816534
:1033D000806D00F08050009002B000F0A1B80000B5
:1033E00000100240002809DB00F01F02012191407B
:1033F0004009800000F1E020C0F800117047000093
:10340000F0B40E4B1B680C46C3F30223C3F107054F
:10341000042D00D90425191D072901D2002300E03D
:10342000DB1E012606FA05F1491E214099409E4007
:10343000761E16403143F0BC05F07EBD0CED00E079
:10344000064900F0070208684FF6FF03184040EAFB
:103450000220034A10430860704700000CED00E0B2
:103460000000FA052B492C4B0A6832214A432B49AC
:1034700040B1B0F5007F086829D020F4C06040F466
:1034800080602CE00868C0F34120022804D051F885
:10349000800F20F4807022E0D1F8800020F480704A
:1034A000C1F88000086820F4C06040F40070086033
:1034B000B2FBF3F0401C00E0401E4A69520501D502
:1034C0000028F9D1486940050AD503207047C0F3A8
:1034D0004120022806D051F8800F40F48070086027
:1034E00000207047D1F8800040F48070C1F880005F
:1034F000086820F4C06040F400700860B2FBF3F08C
:10350000401C00E0401E4A695205DBD50028F9D175
:10351000D8E700002000002040420F00007000406B
:103520000248816841F4804181607047007000402A
:103530000248016841F480710160704700700040EA
:103540002DE9F843044600680026BB4D00035ED514
:10355000A86D0027C00008D4A86D40F08050A86571
:10356000A86D012700F080500090DFF8D092D9F8C4
:10357000001041F48071C9F80010FFF7DBFE8046AF
:1035800006E000BFFFF7D6FEA0EB080002282BD80C
:10359000D9F80000C005F5D5D5F8900010F44070BA
:1035A00014D0216D814211D0D5F89000D5F890103B
:1035B00020F4407041F48031C5F89010D5F8901097
:1035C00021F48031C5F89010C5F89000C00711D0E3
:1035D000FFF7B0FE804641F2883907E0FFF7AAFE08
:1035E000A0EB0801494501D903260BE0D5F890006E
:1035F0008007F3D5D5F89000216D20F44070084382
:10360000C5F890001FB1A86D20F08050A865207803
:10361000C00707D0D5F88800616820F00300084390
:10362000C5F888002078800707D5D5F88800A168FC
:1036300020F00C000843C5F888002078400707D523
:10364000D5F88800E16820F030000843C5F888000C
:103650002078000707D5D5F88800216920F0C00040
:103660000843C5F888002078C00607D5D5F888003B
:10367000616920F440700843C5F88800207880060E
:1036800007D5D5F88800A16920F440600843C5F843
:1036900088002078400607D5D5F88800E16920F435
:1036A00040500843C5F888002078000607D5D5F8B3
:1036B0008800216A20F440400843C5F8880020882B
:1036C000C00507D5D5F88800616A20F4403008436A
:1036D000C5F888002068800307D5D5F89C00A16A4A
:1036E00020F003000843C5F89C002088800507D51A
:1036F000D5F88800E16A20F440200843C5F8880026
:10370000208840050FD5D5F88800216B20F44010A3
:103710000843C5F88800206BB0F5801F03D1E86826
:1037200040F48010E860208800050FD5D5F88800A7
:10373000616B20F440000843C5F88800606BB0F569
:10374000800F03D1E86840F48010E8602088C0044E
:103750000FD5D5F88800A16B20F040700843C5F85C
:103760008800A06BB0F1807F03D1E86840F480103E
:10377000E86020884FF0006180040ED5D5F88800FD
:10378000E26B20F040601043C5F88800E06B88428F
:1037900003D1E86840F48010E860208840040ED52A
:1037A000D5F88800226C20F040601043C5F88800EE
:1037B000206C884203D1E86840F48010E8602088DB
:1037C00000040FD5D5F88800616C20F04050084304
:1037D000C5F88800606CB0F1805F03D1E86840F400
:1037E0008030E8602068C0030FD5D5F88800A16C50
:1037F00020F040400843C5F88800A06CB0F1804F2D
:1038000003D1E86840F48030E860206840030FD5B9
:10381000D5F89C00E16C20F440100843C5F89C00EA
:10382000E06CB0F5001F03D1E86840F48010E86058
:103830003046BDE8F88300000010024000700040F0
:103840002DE9F0470E4605004FF0000725D0DFF8C0
:10385000AC81D8F8000000F00F00B0420CD2D8F8CC
:10386000001021F00F013143C8F80010D8F8000013
:1038700000F00F00B04210D12968614CC80741F236
:10388000883A5AD06868DFF87C91032808D002286B
:1038900020682DD0400500282CDB0120BDE8F087F2
:1038A00020688001F9D5E06800F00302E068C0F309
:1038B0000310401C032A19D0534A00BFB2FBF0F09A
:1038C000E268C2F306225043E268C2F34162521C2E
:1038D0005200B0FBF2F0484517D9A06810F0F00F85
:1038E0000CD0880711D5A86840B10EE0474AE5E73B
:1038F0008003D0E700F0B6F8484506D9A06820F06C
:10390000F00040F08000A0608027A068696820F087
:1039100003000843A060FFF70DFD814606E000BFED
:10392000FFF708FDA0EB090151453AD8A068696886
:1039300000F00C00B0EB810FF2D12868810714D59C
:10394000400703D5A06840F4E060A0602878000735
:1039500005D5A06820F4605040F4E060A060A06845
:10396000A96820F0F000084304E0802F03D1A0688C
:1039700020F0F000A060D8F80010404601F00F01E0
:10398000B14216D9016821F00F0131430160FFF700
:10399000D1FC074607E000BFFFF7CCFCC11B514537
:1039A00001D903207AE7D8F8000000F00F00B042F8
:1039B000F2D12878400705D5A068E96820F4E060D6
:1039C0000843A0602878000706D5A068296920F47C
:1039D000605040EAC100A06000F044F8A1680C4AC1
:1039E000C1F30311515C01F01F01C840094908608F
:1039F00009480068BDE8F047FFF7BABC0020024064
:103A00000010024000B4C4040024F40000366E012B
:103A100076B8000820000020140000200548064960
:103A200000688968054AC1F30221515C01F01F0159
:103A3000C8407047200000200010024086B80008EF
:103A40000548064900688968054AC1F3C221515CEE
:103A500001F01F01C8407047200000200010024004
:103A600086B80008184910B58868C0F38102174865
:103A7000012A0BD08A68164BC2F38102022A06D0B3
:103A80008A68C2F38102032A03D0002010BD1846C1
:103A900010BDCA6802F00304CA68C2F30312521CC4
:103AA000032C02D0B0FBF2F001E0B3FBF2F0CA68E5
:103AB000C968C2F306225043C1F34161491C490061
:103AC000B0FBF1F010BD0000001002400024F40033
:103AD00000366E012DE9F84304007AD02078F84DC5
:103AE000C00747D0A868E96800F00C0001F00301A6
:103AF0000C2802D0082817D001E0032914D06068F0
:103B0000B0F5803F17D0B0F5A02F286817D020F46B
:103B100080302860286820F4802028606068E0B148
:103B2000FFF708FC064614E02868800322D5606889
:103B30000028D2D01EE0286840F48030EDE740F441
:103B400080202860F7E700BFFFF7F4FB801B6428A4
:103B500070D828688003F7D50CE0FFF7EBFB06462A
:103B600005E000BFFFF7E6FB801B6428F0D828685B
:103B70008003F7D4207880074CD5A868E96800F066
:103B80000C0001F003010C2802D004280DD001E044
:103B900002290AD0E068002828682BD040F4807001
:103BA0002860FFF7C7FB064619E02868400502D5E4
:103BB000E068002891D06868217C20F0FE4040EA4F
:103BC00001606860BF480068FFF7D2FB002800D1A1
:103BD00020E072E1FFF7AEFB801B0228B8D828680E
:103BE0004005F7D56868217C20F0FE4040EA01607E
:103BF00068600FE020F480702860FFF79BFB0646AA
:103C000005E000BFFFF796FB801B0228A0D82868BC
:103C10004005F7D42078000729D560690028D5F839
:103C2000940013D040F00100C5F89400FFF782FB28
:103C3000064606E090E000BFFFF77CFB801B0228F1
:103C400086D8D5F894008007F6D510E020F0010062
:103C5000C5F89400FFF76EFB064604E0FFF76AFB29
:103C6000801B022878D8D5F894008007F6D42078F5
:103C7000400761D5A86D0026C00008D4A86D40F0AB
:103C80008050A865A86D012600F0805000908E48F5
:103C90000168C90511D40168804641F48071016052
:103CA000FFF748FB074604E0FFF744FBC01B022870
:103CB00052D8D8F80000C005F6D5A068012815D064
:103CC0000528D5F8900016D020F00100C5F8900026
:103CD000D5F8900020F00400C5F89000A06841F2EB
:103CE0008838B8B1FFF726FB07460EE0D5F89000FC
:103CF00040F00100F0E740F00400C5F89000F5E75F
:103D0000FFF718FBC11B414526D8D5F89000800766
:103D1000F6D50CE0FFF70EFB074604E0FFF70AFBC1
:103D2000C11B414518D8D5F890008007F6D41EB1C4
:103D3000A86D20F08050A8652078800629D5A0695C
:103D40000028D5F8980013D040F00100C5F898007D
:103D5000FFF7F0FA064606E075E000BFFFF7EAFA63
:103D6000801B02286FD8D5F898008007F6D510E0A0
:103D700020F00100C5F89800FFF7DCFA064604E0E1
:103D8000FFF7D8FA801B02285DD8D5F89800800785
:103D9000F6D4E069F0B3A968C1F3810103295DD0CD
:103DA0000228286820F08070286003D0FFF7C2FA4C
:103DB00004464BE0FFF7BEFA064604E0FFF7BAFA06
:103DC000801B02283FD828688001F7D4F4E9080155
:103DD0006FF00F0202EB01110843218A52044908D7
:103DE00002EB4151A26841EA02210843217D4FF0D4
:103DF0007E42490802EB41610843217B40EAC160F1
:103E0000E968324A11400843E860286840F0807051
:103E1000286000E05EE0E86840F08070E860FFF74E
:103E200089FA044605E000BFFFF784FA001B022868
:103E300009D828688001F7D54CE000BFFFF77AFA6F
:103E4000001B022802D90320BDE8F88328688001FE
:103E5000F4D4E8681E490840E8603BE00128F3D04C
:103E6000E868226A00F00301914226D1616A00F0FD
:103E7000F0020901103991421FD1A26A00F4FE41FB
:103E8000B1EB022F19D194F82C2000F07841B1EB5E
:103E9000C26F12D1218E00F4C00249084905A1F574
:103EA0000011914209D194F8341000F0C060490823
:103EB0004906A1F1007181420CD00120C4E7000045
:103EC0000010024014000020007000400C809F0190
:103ED000FCFFEEFE0020B7E7014850F821007047D4
:103EE00000250040014840F821207047002500408F
:103EF00010B500680B4641680D480140080CD870A9
:103F0000C1F304245C7001F03F049C70C1F34231A2
:103F1000197052B903F0B4FBD870587803F0B0FBB5
:103F20005870987803F0ACFB9870002010BD00002A
:103F30003FFFFF0010B50B460168896859600168B2
:103F40000969C1F30E019960006801680D480140DC
:103F5000C1F305401870C1F306245C7001F07F04C2
:103F60009C70890DD97052B903F08AFB187058788B
:103F700003F086FB5870987803F082FB987000205D
:103F800010BD00007F7F7F0070B504004FF001007E
:103F900040D094F8250028B9002084F82400204659
:103FA00000F040F8022084F825002068C168C94369
:103FB000C90630D5CA214162216853204862204693
:103FC00003F074FB10BB20688169154A11408161C0
:103FD000216888696268A369104322691A43104303
:103FE00088612189E06840EA014021680861204633
:103FF00003F081FB50B9D4E90721114322686369BA
:10400000956925F060452B43194391612268FF2192
:10401000516208B170BD0020012184F8251070BDE7
:10402000BFFF8FFB10B596B0044654216846FCF7DD
:1040300094FE10492068884219D14FF40020009066
:10404000C01214906846FFF77BFA08B1FEF7B0FF84
:10405000094850F8901F41F4004140F838190168B0
:1040600041F480610160006800F48060159016B032
:1040700010BD0000002800400010024070B504464A
:1040800090F824000B4601281BD0012684F82460F8
:10409000022084F82500B2B19878D97840EA014529
:1040A00058781978000240EA413005432168CA2057
:1040B0004862216853204862204603F0F7FAD0B1E5
:1040C00020E0022070BD5878C10603D500F0EF0053
:1040D0000A305870D87803F0DCFA0504587803F0F9
:1040E000D8FA45EA0025987803F0D3FA0543187802
:1040F00045EA4035DAE70848054020684560204633
:1041000003F0F9FA2268FF21516208B984F82560AA
:10411000002184F8241070BD3FFFFF002DE9F0411D
:10412000044690F8240090460D46012811D001273E
:1041300084F82470022084F825002168CA2048628F
:10414000216853204862204603F0B0FA002618B1D7
:1041500029E00220BDE8F0812068B8F1000F8069F5
:104160004FEA406024D0002800DBEE70A878297860
:10417000EA7840EA01406978090241EA825108433D
:1041800018490840216808602068816921F480216D
:104190008161D5E90301084321688A691043886178
:1041A000204603F0A8FA2268FF215162A0B115E071
:1041B000002800DBEE70287803F06BFA03046878BF
:1041C00003F067FA43EA0023A87803F062FA034396
:1041D000E87843EA8050D3E784F8257084F82460B7
:1041E000B8E700007F7F7F0070B504460B48216868
:1041F000C860FFF79FF805464FF47A7607E000BFE6
:10420000FFF798F8401BB04201D9032070BD206829
:10421000C0688006F4D5002070BD00005F0001007A
:1042200010B5401EB0F1807F01D3012010BD4FF0CA
:10423000E02460610F21601704F07EFE0020A06181
:1042400007202061002010BD7047704770470000B4
:1042500030B590F83C20012A45D0012280F83C205E
:10426000CA688B6822F440721A434B6822F4806259
:104270001A430B6822F400621A430B6922F480523D
:104280001A434B6922F400521A430B6B22F480420A
:104290001A430B8B22F4702242EA0342CB6922F0CC
:1042A00080521A43114D03680024AB4205D0104DD3
:1042B000AB4202D00F4DAB4210D10D8D22F47002F3
:1042C00042EA05520D6A22F080722A434D6A22F0BA
:1042D00000722A43C96A22F000520A435A6480F8E5
:1042E0003C40002030BD022030BD0000002C0140C9
:1042F0000034014000500140704770477047000093
:10430000F0B590F83C20012A43D0012580F83C50BC
:10431000022280F83D2003685A689C681E4E1F4F99
:10432000DFF87CC0B34203D0BB4201D0634504D167
:1043300022F4700E4A6842EA0E02DFF868E002EAF0
:104340000E02D1F800E04EEA020EC3F804E0026863
:10435000B24212D0B2F1804F0FD0134B9A420CD020
:10436000124B9A4209D0124B9A4206D0BA4204D05C
:10437000104B9A4201D0624504D1896824F0800331
:104380001943916080F83D50002180F83C100846A8
:10439000F0BD0220F0BD0000002C014000340140BF
:1043A000005001408FFFFFFD000400400008004066
:1043B000000C004000400140704710B5040003D0DD
:1043C00094F83D0010B107E0012010BD002084F8F2
:1043D0003C00204600F022F8022084F83D00211D18
:1043E000206803F089FC012084F8480084F83E002E
:1043F00084F83F0084F8400084F8410084F84200CB
:1044000084F8430084F8440084F8450084F84600AA
:1044100084F8470084F83D00002010BD08B5154A17
:104420000168154891420ED1016E41F400610166A8
:10443000006E002200F40060009011461B20FEF781
:10444000DFFF1B2010E00D4A914211D1816D41F038
:1044500002018165806D002200F00200009011468B
:104460001D20FEF7CDFF1D20BDE80840FEF7BABFB6
:1044700008BD0000002C0140001002400004004074
:1044800090F83D10012901D001207047022180F8E9
:104490003D1000681249884214D0B0F1804F11D00D
:1044A000104988420ED0104988420BD00F498842EB
:1044B00008D00F49884205D00E49884202D00E49E3
:1044C000884207D181680D4A1140062906D0B1F50E
:1044D000803F03D0016841F0010101600020704776
:1044E000002C01400004004000080040000C004087
:1044F000003401400040014000500140070001002D
:1045000001680A6A41F211131A4207D10A6A9B0034
:104510001A4203D10A6822F001020A60012180F8E0
:104520003D1000207047000070B5044690F83C0034
:10453000002501281CD0012684F83C60022084F864
:104540003D0022689068334B184020F47F40906013
:104550000868B0F5005F2ED016DC402849D009DC91
:10456000D0B1102818D0202816D0302849D113E017
:10457000022070BD50282AD0602830D070280FD07B
:10458000B0F5805F3DD13DE010F00F0F39D1011142
:10459000A1F58031072934D822680146104625E06C
:1045A000CB68D1E90121206803F025FC20688168EF
:1045B00041F0770109E0CB68D1E90121206803F0DF
:1045C0001AFC2068816841F4804181601AE0CA6861
:1045D0004968206803F0E4FD5021206806E0CA68BD
:1045E0004968206803F0EDFD6021206803F00EFCAF
:1045F00008E0CA684968206803F0D2FD40212068BD
:10460000F4E7012584F83D60002084F83C0028464A
:1046100070BD000088FFCEFF70472DE9F0410446D1
:104620000068C66805694FF00007A90713D5B107F0
:1046300011D5F91E0161012020772068806980076B
:10464000204602D0FFF7E8FF04E000F045F92046DD
:1046500000F0A2FA2777680716D5700714D52168ED
:104660006FF004000861022020772068806910F450
:10467000407F204602D0FFF7CFFF04E000F02CF986
:10468000204600F089FA2777280715D5300713D57B
:1046900021686FF008000861042020772068C06955
:1046A0008007204602D0FFF7B7FF04E000F014F9BE
:1046B000204600F071FA2777E80616D5F00614D5E3
:1046C00021686FF010000861082020772068C06919
:1046D00010F4407F204602D0FFF79EFF04E000F078
:1046E000FBF8204600F058FA2777E80708D0F007D3
:1046F00006D021686FF001000861204600F0ECFC54
:10470000280601D4A80408D5300606D521686FF420
:10471000025008612046FFF798FDE80508D53006ED
:1047200006D521686FF4807008612046FFF78CFD84
:10473000680608D5700606D521686FF0400008614C
:10474000204600F0CAFCA80608D5B00606D52168A8
:104750006FF0200008612046FFF778FDE80208D5D9
:10476000F00206D521686FF4801008612046FFF73B
:10477000C4FDA80208D5B00206D521686FF4001068
:1047800008612046FFF7B8FD680208D5700206D51B
:1047900021686FF4800008612046FFF7AFFD280212
:1047A0000AD5300208D521686FF400000861204660
:1047B000BDE8F041FFF700BEBDE8F081F0B587B07D
:1047C000044614216846FCF7C8FA246800223B49D5
:1047D000022301264FF09040B4F1804F16D0384D9F
:1047E000AC4224D1CC6C44F00104CC64C96C01F01F
:1047F0000101059140210091CDE901326946CDE9E1
:10480000032300BFFEF768FC07B0F0BDCC6C44F09A
:104810000104CC64C96C01F00101059148F2020168
:104820000091CDE90132CDE903266946EAE7254F3B
:104830000A25BC4209D1CC6C44F00104CC64C96C9B
:1048400001F001010591F9141DE01F4FBC420DD18B
:10485000CC6C44F00104CC64C96C0096CDE9013203
:1048600001F00101CDE90431039225E0174E18480B
:10487000B4420FD1CC6C44F00204CC64C96C01F09A
:1048800002010591B1150091CDE90132CDE9032571
:104890006946B7E70F4DAC42B6D1CC6C44F0020488
:1048A000CC64C96C01F00201059104210091CDE9AD
:1048B00001320321CDE903216946A3E7001002403C
:1048C0000004004000080040000C0040003401409B
:1048D0000004004800500140704770B5044690F84D
:1048E0003C0000260D4601280BD0012084F83C0036
:1048F0000C2A4AD007DC82B1042A20D0082A06D12B
:1049000031E0022070BD102A53D0142A63D0012652
:10491000002084F83C00304670BD206803F080FA27
:104920002068816941F0080181612068816921F076
:1049300004018161206881692A69114311E02068BE
:1049400003F0C4FA2068816941F400618161206844
:10495000816921F480618161206881692A6941EA65
:1049600002218161D4E7206803F000FB2068C1695F
:1049700041F00801C1612068C16921F00401C161F1
:104980002068C1692A69114311E0206803F03EFBE9
:104990002068C16941F40061C1612068C16921F4E6
:1049A0008061C1612068C1692A6941EA0221C1614F
:1049B000AEE7206803F07AFB2068016D41F0080142
:1049C00001652068016D21F0040101652068016D19
:1049D0002A69114311E0206803F0A4FB2068016DEF
:1049E00041F4006101652068016D21F48061016579
:1049F0002068016D2A6941EA0221016588E710B546
:104A0000040003D094F83D0010B107E0012010BD70
:104A1000002084F83C00204600F022F8022084F8B0
:104A20003D00211D206803F067F9012084F848004B
:104A300084F83E0084F83F0084F8400084F8410088
:104A400084F8420084F8430084F8440084F8450068
:104A500084F8460084F8470084F83D00002010BD2B
:104A600008B501684748B1F1804F11D0464A9142DC
:104A70001DD1816D41F004018165806D002200F03F
:104A80000400009011461E20FEF7BAFC1E2073E0C1
:104A9000816D41F001018165806D002200F001000F
:104AA000009011461C20FEF7ABFC1C2064E0374A46
:104AB00091420ED1816D41F008018165806D002227
:104AC00000F00800009011463220FEF799FC3220D9
:104AD00052E02F4A914226D1016E41F40051016605
:104AE000006E002200F40050009011462B20FEF7CB
:104AF00087FC2B20FEF776FC002211462C20FEF7C7
:104B00007FFC2C20FEF76EFC002211462D20FEF7C4
:104B100077FC2D20FEF766FC002211462E20FEF7C2
:104B20006FFC2E2028E01B4A914229D1016E41F4EE
:104B300080110166006E002200F480100090114682
:104B40004D20FEF75DFC4D20FEF74CFC0022114687
:104B50004E20FEF755FC4E20FEF744FC0022114685
:104B60004F20FEF74DFC4F20FEF73CFC0022114683
:104B70005020FEF745FC5020BDE80840FEF732BC4F
:104B800008BD00000010024000080040000C00407A
:104B9000003401400050014070B5044600683049BF
:104BA0000125884210D1207F01280DD12D4E726839
:104BB000521E726008D12CA1344804F022F93570DD
:104BC0000021334800F00CFA3249206888420DD1A8
:104BD000207F01280AD130490868401E086005D1AD
:104BE0002E48002105702E4800F0FAF92D49206862
:104BF00088420DD1207F01280AD12B490868401E28
:104C0000086005D1294800210570294800F0E8F91D
:104C10002849206888420DD1207F02280AD12649E0
:104C20000868401E086005D1244804210570244806
:104C300000F0D6F92349206888420FD1207F01284F
:104C40000CD121490868401E086007D11F48002187
:104C50000570BDE870401E4800F0C2B970BD00008C
:104C6000000400405C0000206D6F746F7220636F61
:104C70006D706C6574652C585F70756C73655F63DF
:104C80006F756E743A25640D0A000000B4020020AE
:104C90005806002000080040900000208C000020F2
:104CA000A4060020000C0040940000208D0000208D
:104CB000F006002000340140980000208E00002003
:104CC0003C070020005001409C0000208F00002085
:104CD0008807002070B50446022269B1042912D069
:104CE000082917D00C291CD0102921D094F8430092
:104CF000012824D0012070BD94F83E000128F9D18C
:104D000084F83E201DE094F83F000128F2D184F899
:104D10003F2016E094F840000128EBD184F84020B1
:104D20000FE094F841000128E4D184F8412008E024
:104D300094F842000128DDD184F8422001E084F893
:104D400043200122206803F049F81D4920681D4ACC
:104D50001D4B1E4D88420BD0904209D0984207D07F
:104D60001B4EB04204D01B4EB04201D0A84203D12A
:104D7000466C46F4004646642068884211D0B0F183
:104D8000804F0ED0144988420BD01449884208D075
:104D90001349884205D0904203D0984201D0A842DE
:104DA00007D181680F4A1140062906D0B1F5803F2E
:104DB00003D0016841F001010160002070BD0000D6
:104DC000002C0140003401400040014000500140EF
:104DD0000044014000480140000400400008004039
:104DE000000C004007000100F0B500250446022237
:104DF00069B1042916D008295DD00C2966D0102984
:104E00006BD094F8430001286ED00120F0BD94F8D7
:104E10003E000128F9D184F83E202068C26842F0A3
:104E2000020209E094F83F000128EED184F83F2007
:104E30002068C26842F00402C2600122206802F0C9
:104E4000CDFF2F4920682F4A2F4B304E88420BD080
:104E5000904209D0984207D02D4FB84204D02D4F30
:104E6000B84201D0B04203D1476C47F400474764D1
:104E70002068884211D0B0F1804F0ED02649884278
:104E80000BD02649884208D02549884205D0904257
:104E900003D0984201D0B04207D18168214A114025
:104EA000062906D0B1F5803F03D0016841F0010129
:104EB00001602846F0BD94F840000128A5D184F88F
:104EC00040202068C26842F00802B5E794F841002B
:104ED00001289AD184F8412008E094F84200012882
:104EE00093D184F8422003E084F843200C2901D0B8
:104EF0000125DEE72068C26842F010029CE700004E
:104F0000002C0140003401400040014000500140AD
:104F100000440140004801400004004000080040F7
:104F2000000C00400700010030B504460D46006843
:104F3000002202F053FF244B41F2111120688A0035
:104F400098420ED0214B98420BD0214B984208D06A
:104F5000204B984205D0204B984202D01F4B9842DC
:104F600009D1036A0B4206D1036A134203D1436C91
:104F700023F4004343642068036A0B4206D1016AAC
:104F8000114203D1016821F00101016001205DB1EE
:104F9000042D0CD0082D0DD00C2D0ED0102D0FD0BF
:104FA00084F84300002030BD84F83E00FAE784F81E
:104FB0003F00F7E784F84000F4E784F84100F1E7A8
:104FC00084F84200EEE70000002C0140003401406C
:104FD00000400140004401400048014000500140B1
:104FE00070B50D0004464FF0000607D0042D0AD01E
:104FF000082D0DD00C2D10D001264FE02068C1687F
:1050000021F002010DE02068C16821F0040108E0F0
:105010002068C16821F0080103E02068C16821F020
:105020001001C16000222946206802F0D7FE244BFF
:1050300041F2111120688A0098420ED0214B98420B
:105040000BD0214B984208D0204B984205D0204BE2
:10505000984202D01F4B984209D1036A0B4206D1F5
:10506000036A134203D1436C23F400434364206872
:10507000036A0B4206D1016A114203D1016821F093
:105080000101016001205DB1042D0CD0082D0DD06F
:105090000C2D0ED0102D0FD084F84300304670BD7B
:1050A00084F83E00FAE784F83F00F7E784F8400010
:1050B000F4E784F84100F1E784F84200EEE70000ED
:1050C000002C0140003401400040014000440140F8
:1050D00000480140005001407047704790F884102C
:1050E000012918D0012180F884102421C0F88810EB
:1050F00001680A680B6823F001030B6022F000517D
:1051000000224266036819602021C0F8881080F8E8
:10511000842010467047022070477047704770B572
:10512000044690F8840001281DD0012084F88400F2
:105130002420C4F8880020680568026822F0010273
:1051400002602068826822F060620A438260204622
:1051500003F096F8206805602020C4F8880000203D
:1051600084F8840070BD022070BD70B5044690F8CC
:10517000840001281DD0012084F884002420C4F874
:10518000880020680568026822F001020260206839
:10519000826822F060420A438260204603F070F881
:1051A000206805602020C4F88800002084F884006E
:1051B00070BD022070BD704770477047014651F8BE
:1051C000880F4968084370472DE9F0410368044699
:1051D000D86919689A6840F60F0528424FF0000513
:1051E0004FF002060AD187067ED501F0200702F0B3
:1051F000805C57EA0C0777D0616F3AE1B24FDFF875
:10520000CCC2174001EA0C0C57EA0C0C6CD05FEAD8
:10521000C07C0CD05FEAC15C09D54FF0010CC3F82B
:1052200020C0D4F8903043F00103C4F890308307D5
:1052300009D5D30707D023681E62D4F8903043F015
:105240000403C4F8903043070AD5D30708D0266872
:1052500004233362D4F8903043F00203C4F8903052
:1052600003070CD501F020033B4308D02668082330
:105270003362D4F8903043F00803C4F8903003054B
:105280000BD54B0109D526684FF400633362D4F87F
:10529000903043F02003C4F89030D4F89030002BC5
:1052A0003DD0800609D501F0200002F0805108436E
:1052B00003D0616F09B120468847D4F89000216877
:1052C0008968490602D410F0280F2AD0204603F03E
:1052D000BDF82068806840061ED52068083050E878
:1052E000001F21F0400100E021E040E80012002A08
:1052F000F3D1D4F8800078B175498163D4F8800087
:10530000FDF78DFE00280AD0D4F88000816B00E004
:105310002046BDE8F04108472046FFF74EFFBDE8B4
:10532000F0812046FFF749FFC4F89050F7E7D4F822
:105330006CC02027BCF1010F7ED15FEAC06C7BD529
:105340005FEAC16C78D5102018622068806840063A
:1053500045D5D4F88010086840680004000CDED001
:10536000B4F85C208242DAD9A4F85E0008680068CC
:1053700080062CD4216851E8000F20F4807041E8A9
:105380000002002AF6D12068083050E8001F21F002
:10539000010140E80012002AF5D12068083050E8E9
:1053A000001F21F0400140E80012002AF5D1C4F8A6
:1053B0008C70E566206850E8001F21F0100140E87D
:1053C0000012002AF6D1D4F88000FDF7F3FD26671D
:1053D000B4F85C00B4F85E10401A81B230E0B4F862
:1053E0005C00B4F85E10401A81B2B4F85E00002888
:1053F00095D0002993D0226852E8000F20F49070D5
:1054000042E80003002BF6D12F4BDB432068083025
:1054100050E8002F1A4040E8002CBCF1000FF5D1F5
:10542000C4F88C70E5666567226852E8000F20F0CA
:10543000100042E8000300E006E0002BF4D12667EC
:105440002046FFF76AFE6AE7C60209D5560207D56D
:105450004FF4801018622046BDE8F041FFF7ACBE63
:1054600003060AD501F0800302F40002134304D0BE
:10547000A16F00297FF44CAF51E7420611D54A06CF
:105480000FD52046026852E8001F21F0400142E893
:105490000013002BF6D1C0F88870856700F0A3FADE
:1054A0003DE7020206D54A0004D52046BDE8F0419A
:1054B000FFF781BEC001C6D50029C4DA2046BDE889
:1054C000F041FFF72BBE0000010000102001000496
:1054D0003984000810B5040003D0D4F8880010B156
:1054E00007E0012010BD002084F88400204600F071
:1054F00027F82420C4F888002068016821F0010101
:105500000160A06A10B1204602F0DCFE204603F0E4
:105510002FFA0128E6D02068416821F490414160CB
:105520002068816821F02A0181602068016841F0CB
:10553000010101602046BDE8104002F027BF0000D5
:105540002DE9F0479CB00446142115A8FBF705FC93
:1055500054216846FBF701FC7F4920687F4C0226F6
:10556000002588422AD12020009006956846FDF744
:10557000E7FF08B1FDF71CFDE06D40F00100E065BC
:10558000E06D00F001001A90E06C40F00100E06472
:10559000E06CCDE9166500F001001A900C20CDE911
:1055A0001850159015A94FF09040FDF795FD002279
:1055B00011465B20FDF724FF5B2031E06849DFF8EE
:1055C000A4A14FF440694FF0050888422DD108206E
:1055D000009004956846FDF7B3FF08B1FDF7E8FCBD
:1055E000A06D40F40020A065A06D00F400201A908A
:1055F000E06C40F00400E064E06CCDE9166500F07A
:105600000400CDF854901895CDE9198015A950469D
:10561000FDF762FD002202213420FDF7F1FE342067
:10562000FDF7E0FE1CB0BDE8F0874F490427884233
:1056300036D11020059500906846FDF781FF08B12E
:10564000FDF7B6FCA06D40F48010A065A06D00F4DD
:1056500080101A90E06C40F00400E064E06C00F010
:1056600004001A90E06C40F00800E064E06CCDE9C2
:10567000166500F008001A904FF48050CDE91858D4
:105680001590444615A95046FDF726FDCDE916654F
:10569000CDE91854159715A93448FDF71DFDC1E74C
:1056A00033494FF00708884229D10120CDE9000590
:1056B0006846FDF745FF08B1FDF77AFC206E40F41F
:1056C00080402066206E00F480401A90E06C40F02C
:1056D0000400E064E06CCDE9166500F004001A9067
:1056E0003020CDE91858159015A95046FDF7F4FC67
:1056F000002202212520FDF783FE252090E71D4989
:1057000088428FD1684600970395FDF719FF08B1CD
:10571000FDF74EFCA06D40F48020A065A06D00F464
:1057200080201A90E06C40F00200E064E06CCDE96B
:10573000166500F00200CDF854901895CDE9198057
:1057400015A90D48FDF7C8FC002211462720FDF7DA
:1057500057FE272064E70000008000400010024050
:10576000004C00400008004800500040000C004879
:1057700000380140004800400004004830B4D0F830
:105780008C30202B02D0022030BC7047A9B1A2B1CE
:105790000023C3660A4C0368A3420BD05B681B025C
:1057A00008D5046854E8003F43F0806344E80035BE
:1057B000002DF6D130BC03F027BA0120E4E7000049
:1057C0000080004030B400684D49884271D14D4995
:1057D000002308468C78457801224B485A2C09D082
:1057E000002D0DD00D7844556D1CECB20C70072CBB
:1057F00007D00AE0002DF5D14A708B8004700A7042
:1058000074E0B0F805506DBA8D808D8895B3ED1DAC
:10581000AC426BD14B700B708B80417C6F2908D1EF
:10582000817CE72905D1C17C3D2902D1017D702908
:105830005CD090F82510502908D0402910D050296C
:105840002ED0402912D050292ED04FE090F82810A9
:10585000C22929D190F8291011292BD12B4844E0D5
:1058600090F82810C22906D0C12913D090F828102A
:10587000C22904D03AE090F829100D2908D090F8F8
:105880002900012821D0152821D0192821D02DE068
:105890001F482AE090F82900FD2827D11D4824E060
:1058A00090F82810C22905D090F82810C12912D0EC
:1058B0001CE022E090F82900092802D0052802D037
:1058C00014E0154811E015480FE015480DE01548A3
:1058D0000BE0154809E090F82900F92802D0F528D6
:1058E00002D003E0114800E011480270054901228E
:1058F00030BC891C0F48FFF741BF30BC7047000027
:10590000004C004000000020A00000207400002097
:10591000750000207600002077000020780000202D
:10592000790000207A0000207B0000208800002001
:1059300089000020480300202DE9F8430446D0F8F0
:105940008800984616460D46202802D00220BDE861
:10595000F883A5B19EB10020C4F890002120C4F8BE
:1059600088001834FDF7E6FCA6878146E68754F8E0
:10597000100C2027183CB0F5805F02D003E0012016
:10598000E5E7206910B12E46002510E000260EE064
:105990008021204603F0C0F9C0B9DEB116F8010B32
:1059A00021688862B4F85600401EA4F85600B4F886
:1059B00056004B464FF00002CDF800800028E7D19A
:1059C0004FF04001204603F0A7F940B1C4F88870B9
:1059D0000320BCE735F8020BC0F30800E0E7C4F889
:1059E00088700020B3E77047FEE700000148FFF72A
:1059F000EBBB0000B402002010B50446007B012878
:105A000002D12068FAF7E1FC002020606060A0600D
:105A1000207310BD5FF0010200F07F030B70C0091E
:105A200009D043F08003521C01F8013B042AF3DD46
:105A30004FF0FF307047104670472DE9F0410446A3
:105A4000002500680F462E4610B10220207315E095
:105A5000012020730846FAF789FC2060002808D04E
:105A6000C4E9016702E0206846556D1CA068A842A1
:105A7000F9D8BDE8F081206846556D1CA068A842A1
:105A8000F9D866608842F4D22660F2E72DE9FF5F1C
:105A90009A46934600251046DDF844900E9F139CCD
:105AA000FBF74CF806B2BBF1000F1FD006F1110056
:105AB0001FFA80F807B10225109868B145F0040577
:105AC000FBF73CF8C7B24846FBF738F8C11901EBC1
:105AD0000800001D1FFA80F80F9870B1012807D048
